:020000040800F2
:10000000380900209D0100087F1600087B160008B3
:100010007D160008350200086D1C00080000000075
:10002000000000000000000000000000831600082F
:10003000510200080000000081160008E9160008BF
:10004000B7010008B7010008B7010008B7010008B0
:10005000B7010008B7010008B7010008B7010008A0
:10006000B7010008B7010008B7010008B701000890
:10007000B7010008B701000839020008450200086E
:10008000B7010008B7010008B7010008B701000870
:10009000B7010008B7010008B7010008B701000860
:1000A000B7010008B7010008B7010008B701000850
:1000B000B70100080000000000000000B7010008C0
:1000C000B7010008B7010008B701000800000000F0
:1000D000B70100084D1C0008B7010008B70100086F
:1000E000B7010008B7010008B701000800000000D0
:1000F0000000000000000000000000000000000000
:10010000000000000000000000000000B70100082F
:100110000000000000000000B7010008000000001F
:1001200000000000000000000000000000000000CF
:1001300000000000000000000000000000000000BF
:10014000B7010008B701000800000000000000002F
:10015000000000000000000000000000000000009F
:10016000B7010008B7010008B7010008B70100088F
:10017000B7010008000000000000000000000000BF
:1001800000000000B7010008DFF80CD000F040F8D4
:1001900000480047151D0008380900200648804720
:1001A00006480047FEE7FEE7FEE7FEE7FEE7FEE75C
:1001B000FEE7FEE7FEE7FEE7791700088901000881
:1001C000D2B201E000F8012B491EFBD27047002299
:1001D000F6E710B513460A4604461946FFF7F0FF46
:1001E000204610BD30B50B460146002020220124D8
:1001F00009E021FA02F59D4205D303FA02F5491BF5
:1002000004FA02F52844151EA2F10102F1DC30BD0A
:10021000064C074D06E0E06840F0010394E8070053
:1002200098471034AC42F6D3FFF7B2FF64220008BF
:1002300084220008FEE70000014800F04CB800BF2F
:1002400060000020014800F046B800BF1800002000
:100250007047EFF3108072B6FEE7416A022911D1B0
:10026000016801230A6822F00E020A600A6822F07F
:1002700001020A60D0E9101203FA02F24A6000217A
:10028000436202E00421C1630121002202620846A8
:100290007047416A022919D1016801230A6822F0D6
:1002A0000E020A600A6822F001020A60D0E9101208
:1002B00003FA02F24A600021C0E90813826B42B1DE
:1002C00080B590470021BDE8804002E00421C16371
:1002D000012108467047B0B5D0E910CEDCF8001017
:1002E0000268136813F0040F1EBF042404FA0EF40E
:1002F00014EA010517D19C0721D5022404FA0EF453
:1003000014EA01051BD0116811F0200F05D1116806
:1003100021F00A011160012141620021CCF8044062
:100320000162C16A21E0116811F0200F02BF11685B
:1003300021F004011160CCF80440016B15E01B07AB
:1003400017D5082303FA0EF3194008BFB0BD116892
:1003500021F00E011160012101FA0EF2CCF8042007
:100360000022C163C0E90821416B11B1BDE8B04072
:100370000847B0BD2DE9F0410446002800F08A800E
:1003800020684649884215D04549884212D04549DF
:1003900088420FD0444988420CD04449884209D051
:1003A0004349884206D04349884203D042489421B9
:1003B00001F05EFC606840B1102806D0B0F5804FB7
:1003C00003D03D48952101F053FCA06840F0400067
:1003D000402803D03848962101F04AFCE06840F0FC
:1003E0008000802803D03448972101F041FC206927
:1003F00048B1B0F5807F06D0B0F5007F03D02E481D
:10040000982101F035FC606948B1B0F5806F06D0E5
:10041000B0F5006F03D02848992101F029FCA069AC
:1004200040F02000202803D023489A2101F020FC2E
:10043000E0694FEA3031042904D31F489B2101F0C1
:1004400017FCE069D4E9001804F1080E43F6F072D5
:100450009EE80850D4E905560F6827EA020242EAEE
:1004600008021A4342EA0C0242EA0E022A433243CD
:100470001043134A0860114811441422B1FBF2F1F1
:100480008900C4E9100100200121E063C4E90801EA
:10049000BDE8F0810120BDE8F08100BF0800024006
:1004A0001C0002403000024044000240580002405C
:1004B0006C00024080000240F12100080000024070
:1004C000F8FFFDBFB0B5044600F08AF90546E048E4
:1004D000611C406818BF044400F082F9401BA04230
:1004E000FAD3B0BD2DE9FE4F054600F138400C4669
:1004F0004FEAB026052E00F22581042E00F022815D
:1005000020680021B1EB104F01D180B218B9B34877
:10051000BB2101F0ADFB6068122800F2F6800121DA
:100520008B4A8140114200F0F080A06801960328B8
:1005300003D3AA48BD2101F09BFB8C48052100266E
:100540004FF0010C4FF0030E4FF000094FF0000880
:10055000854208BF03210091206830FA08F108BFE6
:10056000BDE8FE8F0CFA08F710EA070A00F0BE801B
:100570006068122824D80CFA00F111F0061F1FD071
:10058000E168032901D8022909D19448CD2101F05D
:100590006FFB6068E1684FF0030E4FF0010CAB6831
:1005A0000EFA09F201FA09F123EA02021143A960E5
:1005B000C0F300116A6801FA08F1BA431143696097
:1005C000EA68A3680EFA09F16FEA010B8A4303FA9D
:1005D00009F340F010011A431229EA6023D101986F
:1005E000052800F28980042800F0868020690D2803
:1005F0000AD30F2808D07948E62101F039FB206999
:100600004FF0030E4FF0010C5B4B06F01C010F2264
:100610008A40884003EA58032B441F6A27EA0202F3
:100620001043186260682A6800F0030110F0805FD0
:1006300001FA09F102EA0B0241EA0201296055D0F0
:10064000914806F00C020F27B5F1904F07FA02F718
:100650000146006840F0010008600868444900F065
:100660000100A1F57E71029002984FEA980051F8BE
:10067000203023EA070308D0404FBD4207D0404F47
:10068000BD42009F08BF022702E0002700E00127CB
:1006900007FA02F21A4341F8202035480346006861
:1006A000626840EA0A0112F4803F08BF20EA0A01AA
:1006B00012F4003F1960586840EA0A0108BF20EAB6
:1006C0000A0112F4801F5960986840EA0A0108BFC5
:1006D00020EA0A01274812F4001F996003460068C7
:1006E00040EA0A0108BF20EA0A011960043609F14C
:1006F000020908F101082FE73848E52101F0B8FAAE
:100700004FF0030E4FF0010C70E7124988423FF49E
:100710000CAF114988423FF408AF104988423FF4BA
:1007200004AF0F4988423FF400AF0E4988423FF4BE
:10073000FCAE0D4988423FF4F8AE2848BC2101F0D8
:1007400097FAF2E62548BA2101F092FAD8E600BFFE
:100750000F00060000001110000012100000211010
:10076000000022100000311000003210000C004880
:10077000000401400C040140FCFFFF7F000400481E
:1007800000080048B0B50D46044621B9134840F2B0
:10079000BF1101F06DFA606900EA050125EA000069
:1007A00040EA0140A061B0BD70B516460C46054652
:1007B00021B90A4840F2A71101F05AFA022E03D2D9
:1007C0003EB905F1280006E004484FF4D47101F069
:1007D0004FFA05F11800046070BD00BFB821000891
:1007E0001B488068704700BF1948416882681144FF
:1007F0008160704780B50748016841F010010160D1
:10080000032000F091F8002000F006F800F024F832
:10081000002080BD0020024070B50D4E04464FF40C
:100820007A717068B1FBF0F00A490968B1FBF0F029
:1008300000F026FD01250F2C08D838B94FF0FF3005
:1008400021460022002500F035F83460284670BDAE
:10085000040000201000002082B00B48016841F025
:1008600001010160016801F00101019101994168F4
:1008700041F080514160406800F080500090009845
:10088000072002B000F050B818100240B0F1FF3F4E
:1008900009DD00F01F010122400902FA01F1044ABA
:1008A00042F8201070472A48D82101F0E1B900BF72
:1008B00000E100E070B514460D460646102A03D349
:1008C0002348C42101F0D4F9102D03D32048C521B9
:1008D00001F0CEF906F00F011E4A1248B6F1FF3FB3
:1008E000A1F10401114401F10C01C8BF31181068D5
:1008F000C0F30220021DC31E80F00700072A4FF03C
:10090000010238BF0023042828BF042002FA00F0A7
:100910009A4001380F32284022409840104300018D
:10092000087070BD00E400E010B5044603380528E7
:1009300003D30748AC2101F09BF906484FF6FF02AC
:1009400001681140044A64F30A211143016010BD9B
:10095000292200080CED00E00000FA052DE9FC4119
:1009600004460068A649884204D3A648722101F0D3
:100970007FF92068A44EC00364D560684FEA302038
:10098000042803D39F48782101F072F9B06910F070
:10099000805F0BD1B0694FF0010840F08050B0612A
:1009A000B06900F080500190019801E04FF000081C
:1009B000964F386810F4807F11D1386840F4807009
:1009C0003860FFF70DFF0546386810F4807F06D1C8
:1009D000FFF706FF401B6428F6D9032005E1F06904
:1009E00010F4407020D0616801F4407188421BD03F
:1009F0008749F06901220A60002210F0010F0A60A5
:100A000020F44071F1610FD0FFF7EAFE054641F294
:100A10008837F06910F0020F06D1FFF7E1FE411BA5
:100A20000320B942F5D9E0E0F0696168B8F1000F40
:100A300020F4407040EA0100F0611EBFB06920F070
:100A40008050B061206810F0010F0DD0A16804291A
:100A500005D36C48BE2101F00BF92068A168F26A49
:100A600022F003021143F16281060FD5E16841F0E3
:100A70001002102A05D06348E02101F0F9F820683F
:100A8000E168F26A22F010021143F162810310D58D
:100A9000216B41F48002B2F5800F05D05948EE2158
:100AA00001F0E6F82068216B326822F480021143DD
:100AB0003160410610D5216941F02002202A06D07C
:100AC00050484FF4817101F0D3F820682169F26A2F
:100AD00022F020021143F162010410D5616941F056
:100AE0004002402A06D047484FF48A7101F0C0F80E
:100AF00020686169F26A22F040021143F1628105C7
:100B000011D5E16941F40002B2F5000F06D03D486D
:100B100040F23D1101F0ACF82068E169326822F43E
:100B200000021143316001060FD5A1694FEA31126D
:100B30001B2A5DD8012303FA02F2364B1A4257D022
:100B4000B26A22F4F8721143B162C10411D5216A6C
:100B500041F48072B2F5807F06D02A484FF4C77105
:100B600001F086F82068216AF26A22F4807211434B
:100B7000F162410311D5616A41F48062B2F5806F80
:100B800006D0204840F2AF1101F072F82068616A87
:100B9000F26A22F480621143F162010311D5A16A65
:100BA00041F40062B2F5006F06D0164840F2B91168
:100BB00001F05EF82068A16AF26A22F40062114333
:100BC000F162C00210D5E06A40F40051B1F5005F57
:100BD00005D00C4840F2C31101F04AF8E06AF16A0E
:100BE00021F400510843F062002002B0BDE8F0811A
:100BF000044840F24D1101F03BF82068A1699FE7DD
:100C0000E2921F007D2100080410024000700040A5
:100C1000400442420100FF0F2DE9F0410D46044619
:100C2000002800F0CE802078000704D1724840F2FE
:100C3000C32101F01DF8032D04D36F484FF4317127
:100C400001F016F86D4E4FF48050315801F0070155
:100C5000A9420AD2315821F00701294331503058B6
:100C600000F00700A84240F0AC802068B04610F0C9
:100C7000020F12D0A1684FEA31120F2A00F2A480AD
:100C8000012303FA02F24FF601731A4200F09C802E
:100C9000726822F0F00211437160C0073FD06068B3
:100CA000E0B1012846460BD0022811D0524840F24C
:100CB000E22100F0DDFF6068022809D001280ED192
:100CC0003168012011F4003F08BFBDE8F0810AE05F
:100CD000306810F0007F74D0022004E0464631688E
:100CE00011F0020F6DD0716821F0030108437060AC
:100CF000FFF776FD064641F2883707E0FFF770FD03
:100D0000801BB84284BF0320BDE8F0814046D8F87C
:100D10000400616800F00C00B0EB810FEED14FF4DD
:100D2000805058F8001001F00701A9420CD958F87A
:100D3000001021F00701294348F8001058F800007E
:100D400000F00700A8423CD1206810F0040F11D039
:100D5000E1684FEA3122072A3ED8012303FA02F262
:100D600012F0F10F38D0D8F8042022F4E0621143D9
:100D7000C8F80410000712D520694FEA302107296E
:100D800032D8012202FA01F111F0F10F2CD0D8F87B
:100D9000041021F4605141EAC000C8F8040000F0DA
:100DA00041F8D8F80410164AC1F30311515CC84049
:100DB0001A49086013480068FFF72EFD0020BDE8BF
:100DC000F0810120BDE8F0810B4840F2DB2100F00A
:100DD0004FFF2068A1685BE7074840F21E3100F032
:100DE00047FF2068E168BEE7034840F2253100F084
:100DF0003FFF2069CBE700BF4521000800100240FB
:100E0000D4200008040000200448ED49044A00688A
:100E10000968C1F30221515CC840704710000020EE
:100E2000E420000810B5E64C0C48226802F00C03E0
:100E3000082B18BF10BD0A49C2F3834312F4803F48
:100E4000CB5CA16A02D10848584310BD054A01F0A5
:100E50000F01515CB0FBF1F0584310BD00127A0055
:100E6000EC200008FC20000800093D002DE9F843B3
:100E70000446002800F09E81206848B110F00F0160
:100E800006D1DFF8F00340F24B1100F0F1FE2068CC
:100E9000CA4ECB4FC007B14661D0606858B1B0F5BB
:100EA000803F08D0B0F5A02F05D0DFF8C80340F28E
:100EB000511100F0DDFE386800F00C00042807D165
:100EC000306810F4003F4AD06068002847D171E1D3
:100ED000386800F00C00082803D1386810F4803F0F
:100EE000EED1D4F80480B8F1000F0DD0B8F5803FF2
:100EF00006D03068B8F5A02F07D140F480203060CC
:100F0000306840F4803006E0306820F48030306093
:100F1000306820F480203060B86AA16820F00F00AB
:100F20000843B862FFF75CFC0546B8F1000F09D032
:100F3000306810F4003F12D1FFF752FC401B6428C8
:100F4000F6D90EE1D9F800004E4610F4003F06D065
:100F5000FFF746FC411B03206429F3D92BE12078DD
:100F600080073FD52069022804D3C24840F2891186
:100F700000F07EFE6069202804D3BE484FF4C5719E
:100F800000F076FE386810F00C0F08D0386800F0DA
:100F90000C0008280BD1386810F4803F07D1306866
:100FA00010F0020F17D02069012814D002E1206947
:100FB000002800F09580B04801210160FFF710FC87
:100FC0000546306810F0020F05D1FFF709FC401B01
:100FD0000228F6D9C5E03068616920F0F80040EADF
:100FE000C1003060207800072CD5A069C8B1012865
:100FF00006D0A0484FF4E57100F03AFEA06980B138
:101000009D480121C0F88014FFF7EAFB0546386AC5
:1010100010F0020F16D1FFF7E3FB401B0228F6D9B0
:101020009FE095480021C0F88014FFF7D9FB0546E2
:10103000386A10F0020F05D0FFF7D2FB401B0228E0
:10104000F6D98EE02078400740F19480E0680528CA
:1010500005D8012101FA00F010F0230F04D18548D2
:101060004FF4FB7100F004FEB86910F0805F0BD103
:10107000B8694FF0010840F08050B861B86900F0DD
:1010800080500090009801E04FF000087B4E4846E9
:1010900059F8060010F4807F14D159F8060040F486
:1010A000807049F80600FFF79BFB0546484659F853
:1010B000060010F4807F05D1FFF792FB401B6428E7
:1010C000F4D94EE0E068F8B1012805D0F9690528A7
:1010D00032D141F00400F861F86940F0010031E0DC
:1010E000654800210160FFF77BFB05464846D9F8BB
:1010F000000010F0020F3FF475AFFFF771FB411BCA
:1011000003200229F2D956E0F86920F00100F861C5
:10111000F86920F00400F861FFF762FB054641F230
:101120008836F86910F0020F1DD0FFF759FB411BFC
:101130000320B142F5D93EE021F00100F861F869E1
:1011400020F00400F861FFF74BFB054641F28836BA
:10115000F86910F0020F06D1FFF742FB401BB042C6
:10116000F6D9032027E0B8F1000F1EBFB86920F0C0
:101170008050B861E069411E022909D3002877D068
:101180003C4840F23A2100F073FDE06900286FD03E
:10119000396801F00C01082914D101280AD03868F7
:1011A000216A00F480328A4204D1616A00F470102E
:1011B00088425DD0012001B0BDE8F08300100240FC
:1011C000041002402C4E022826D1206A40F48030C0
:1011D000B0F5803F04D0274840F2432100F048FD9D
:1011E000606A4FEAB0400F2804D322484FF41171CF
:1011F00000F03EFD00203066FFF7F2FA0546484653
:10120000D9F8000010F0007F18D0FFF7E9FA411B71
:1012100003200229F3D9CEE700203066FFF7E0FA79
:1012200004464846D9F8000010F0007F20D0FFF7B0
:10123000D7FA011B03200229F3D9BCE73868D4E9A7
:10124000081220F4741010430843386001203066FF
:10125000FFF7C6FA04464846D9F8000010F0007FB0
:1012600006D1FFF7BDFA011B03200229F3D9A2E73B
:101270000020A0E745210008000042420060FEFF78
:10128000411E0020B0EB116F1CBF01207047044AC3
:10129000F023516003490B70072190601160704783
:1012A00010E000E023ED00E0704770477047000059
:1012B000F8B50168074640F60F04C8690A460B688E
:1012C00052F8085F204246D0884C03EA040605F035
:1012D0000104264346D0C60718BF13F4807607D012
:1012E00001260E62D7F8806046F00106C7F88060DC
:1012F000860708D53CB102260E62D7F8806046F01A
:101300000406C7F88060460708D53CB104260E6283
:10131000D7F8806046F00206C7F8806006070BD554
:1013200003F02006264307D008260E62D7F8806017
:1013300046F00806C7F88060060551D513F08066B0
:101340004ED04FF400663C460E6254F8801F41F0C8
:101350002001216046E003EA000212F0200F03D0D2
:10136000796EBDE003EA00023B6ED6062BD5012B59
:1013700029D110200862886810F0400F62D1B7F8B8
:101380005A00B7F85820B7F85A30002B00F0AD805B
:10139000101A020400F0A9800A6822F490720A6010
:1013A0008A6822F001028A602022FA6700227A66A7
:1013B0003A660A6822F010020A6081B23846BDE837
:1013C000F440FFF771BFC0026CD515F4800069D0FE
:1013D0004FF4801008623846BDE8F840FFF765BF5B
:1013E00007F180042168002900F07F801840800602
:1013F00006D5796E21B138468847386800F1080271
:101400002068116800F0280001F0400108435FD017
:10141000384600F0CDFA3868816811F0400F52D09C
:10142000816821F040018160386F00284BD030493D
:101430008163FEF72EFF002857D0386F816BBDE81F
:10144000F8400847386F026853689DB2002D4CD0B1
:10145000B7F85820954248D2A7F85A308369202B14
:1014600017D00A6822F480720A608A6822F00102AA
:101470008A608A6822F040028A602022FA6700228D
:101480003A660A6822F010020A60FEF7E6FEB7F834
:101490005820B7F85A00101A81B23846BDE8F84013
:1014A000FFF702BF10061AD450061ED5086820F0B8
:1014B000400008600020B8662020B8673846BDE8C4
:1014C000F84000F0D9B83846BDE8F840FFF7EEBE66
:1014D0003846FFF7EBFE0020C7F8800005E0B96E44
:1014E00019B13846BDE8F8400847F8BD20010004AE
:1014F000A119000810B5044680B3A169206861B144
:101500002349884217D02349884214D0744988421D
:1015100011D0214840F22B110BE01D4988420AD01E
:101520001C49884207D06E49884204D01A484FF4BB
:10153000987100F09DFBA06F20B9002060672046E5
:1015400000F02CF82420A0672068016821F0010138
:101550000160204600F042FA012801D1012010BDAF
:10156000606A10B1204600F00FF92068416821F44C
:1015700090414160816821F02A018160016841F059
:10158000010101602046BDE8104000F0D7B900BF5E
:1015900000440040004800400C2100082DE9F043C1
:1015A00087B0044602A81421FEF711FE2068E24924
:1015B000884255D12C484B4E0027016841F48041A8
:1015C000016002A9006800F4804001900198D6F8FB
:1015D000D00F40F40020C6F8D00FD6F8D00F00F49A
:1015E00000200190019802200390302002900320F7
:1015F00004970590072006901C48FEF773FF1C4DCA
:1016000006F114004FF080082021B146C5E900071B
:101610002846C5E90278C5E90477C5E90617FEF74B
:10162000A9FE08B1FEF715FE124E10202567AC6228
:10163000C6E900903046C6E90278C6E90477C6E9F3
:101640000677FEF797FE08B1FEF703FE252000217E
:101650000022E666B462FFF72DF92520FFF716F9A0
:1016600007B0BDE8F08300BF181002400008004832
:1016700018000020600000207047FEE7FEE7FEE74C
:1016800070477047B0B5154D21220024AA67AA4AB9
:10169000136823F014031360124B1C6002F128043A
:1016A0009C60D8609120596018604020106290685A
:1016B00040F080009060106840F049001060FFF733
:1016C0008FF80446FFF78CF8001BC0087C2888BF01
:1016D000B0BDA86F2028F5D1B0BD00BFA800002084
:1016E0000038014044000240FFF77EB8B0B59CB01E
:1016F00000240DA81421CDE91744CDE91544FEF7C7
:1017000066FD68463421FEF762FD4FF4A0200225F5
:10171000139001201290149416904FF48030199574
:101720001A904FF4E0101B9012A8FFF79FFB18B11E
:10173000EFF3108072B6FEE70F200E9502210D9098
:101740004FF480600F94CDE910040DA8FFF764FA00
:1017500018B1EFF3108072B6FEE70020029001206E
:1017600000906846FFF7FAF818B1EFF3108072B6F0
:10177000FEE71CB0B0BD00000248016841F47001F2
:101780000160704788ED00E010B50446406AB0F58E
:10179000807F05D3674840F6C63100F069FA606A79
:1017A000C10712D0A16A41F40032B2F5003F06D061
:1017B000F84840F6CB3100F05BFAD4E90901226821
:1017C000536823F4003319435160810712D5E16A4D
:1017D00041F48032B2F5803F06D0EE4840F6D23177
:1017E00000F046FA606AE16A2268536823F48033A5
:1017F00019435160410712D5216B41F48022B2F5A3
:10180000802F06D0E34840F6D93100F031FA606A03
:10181000216B2268536823F4802319435160010728
:1018200012D5616B41F40042B2F5004F06D0D948A1
:101830004FF43E6100F01CFA606A616B22685368E5
:1018400023F4004319435160C10612D5A16B41F442
:101850008052B2F5805F06D0CE4840F6E73100F006
:1018600007FA606AA16B2268936823F480531943D6
:101870009160810612D5E16B41F40052B2F5005F30
:1018800006D0C44840F6EE3100F0F2F9606AE16B30
:101890002268936823F4005319439160400631D5C0
:1018A0002068C049884204D0BA4840F6F53100F0BB
:1018B000DFF9216C41F48010B0F5801F05D0B548E8
:1018C00040F6F63100F0D4F9216C2068B1F5801FA4
:1018D00050F8042F22F4801242EA0102026011D172
:1018E000616C4FEA7152042A07D3AA4840F6FB31D3
:1018F00000F0BEF92068616C0430026822F4C00276
:101900001143016094F82400000658BF10BDA06C7C
:1019100040F40021B1F5002F05D09E4840F6034168
:1019200000F0A6F9A06C21684A6822F40022104356
:10193000486010BD0C21000800380140BCB50446C9
:101940000020C4F88000FEF74BFF054620680168C0
:1019500011F0080F0AD011484FF4001100222B4655
:101960000090204600F026F970B92068006810F059
:10197000040F0BD009484FF4800100222B46009041
:10198000204600F017F908B1032005E02020A067E9
:10199000E06700206067206602B0B0BDFFFFFF0176
:1019A000806A0021A0F85A10A0F85210FFF77EBC00
:1019B00001680A6822F490720A608A6822F00102C3
:1019C0008A60026E012A02BF0A6822F010020A60D1
:1019D0002021C167002141660166704710B50446A9
:1019E00040686B49884204D36A4840F63D3100F0B4
:1019F0003FF9A06850B1B0F5805F07D0B0F1805FCB
:101A000004D0644840F63E3100F032F9E0684FEA15
:101A10003030042804D35F4840F63F3100F028F905
:101A2000206A40F40060B0F5006F04D059484FF4CC
:101A3000346100F01DF9206950B1B0F5806F07D016
:101A4000B0F5C06F04D0534840F6423100F010F9B1
:101A5000606910B120F00C0020B14E4840F64331CF
:101A600000F006F9A0694FEA3020042804D3494861
:101A700040F6443100F0FCF8D4F81CC04CF40040AF
:101A8000B0F5004F06D0434840F6453100F0F0F87D
:101A9000D4F81CC0A2682068D4E9043142EA0C02E0
:101AA0001A433D4B114302681A40114301604168DB
:101AB000E26821F4405111434160A169226A114357
:101AC000826822F4306211430022816033498842E7
:101AD00012D0334988420FD0F94988420BD132489D
:101AE0003249006880F0020000F0030040EA800004
:101AF00021FA00F200E010222D4802F01F0201211D
:101B0000BCF5004F0BD1082A3CD8DFE802F0053BBA
:101B10001A3B143B3B3B1800FFF776F90DE0082A0F
:101B200030D8DFE802F0052F222F1C2F2F2F2000A6
:101B3000FFF76AF915E0FFF775F910B91FE04FF4E8
:101B4000004061684A0802EB4000B0FBF1F04FF63C
:101B5000F071014015D0C0F3420008430DE0FFF7DB
:101B600061F910B90BE04FF40040616800EB5100DF
:101B7000B0FBF1F080B2102803D32168C8600021C7
:101B800000E001210020C4E91900084610BD00BF93
:101B9000415489000C210008F369FFEF0044004024
:101BA0000048004000380140301002404800020068
:101BB00000127A002DE9F843DDF820900F46016805
:101BC00098461646044609F10105C8693840C01B0D
:101BD000B0FA80F04009B04223D1002DF5D0FEF7D5
:101BE000FFFD2168B9F1000F0A681ED0A0EB0800C4
:101BF00048451AD85007E8D5C86910F4006FE4D0FA
:101C00004FF400600862086820F4D07008608868AB
:101C100020F0010088602020A067E06704F18000C8
:101C20000EE0002001B0BDE8F08322F4D07008601F
:101C3000886820F0010088602020A06704F17C0003
:101C400020210160002060670320EBE7064801685F
:101C500011F0400F04D04021416098482021816755
:101C60009648FFF725BB00BF1C380140FEE7000087
:101C700070B50C46054605A630462946224600F0BA
:101C80002DF94FF47A70FEF71DFCF5E757726F6E71
:101C90006720706172616D65746572732076616C26
:101CA00075653A2066696C65202573206F6E206C1F
:101CB000696E652025640D0A000000000A49D1F80C
:101CC000802012F0010F0ED0096811F0010F08BF3B
:101CD00070474FF0604100E000BF0A68002AFBD067
:101CE0004FF0604108707047000E00E080B5134669
:101CF000844606E001F1200ECCF800108C46013B32
:101D00007146002BF6D10021CCF80010C1808280F2
:101D100080BD00002DE9F04F87B0FEF76BFDFFF7A7
:101D2000E5FC0027614D624C4FF4005100224FF456
:101D3000005ACDE90577286840F40020286028681B
:101D400000F4002001900198286840F48000286089
:101D5000286800F4800001900198286840F4003061
:101D60002860286800F4003001900198286840F449
:101D700080202860286800F480200190019828685D
:101D800040F480102860286800F4801001900198C9
:101D90002046FEF709FD47480DF1080804F5806666
:101DA000DFF814914146CDE902A030460497C847B8
:101DB00041F6CF704FF0030B414602903046CDE91B
:101DC00003B7C84749F6FF70CDF80CB04146029002
:101DD0004FF090400497C8474DF6F770CDF80CB01F
:101DE0004146029020460497C84701204146CDE96C
:101DF00002A02046CDE90477C8470420CDF80CB0F6
:101E00004146029004F500600497C8472868002105
:101E1000002240F001002860286800F001000290D4
:101E200002980E20FEF746FD0E20FEF72FFD0F2034
:101E300000210022FEF73EFD0F20FEF727FD1F4880
:101E40001F4A4FF4E1310C23C0E90877C0E90021B3
:101E5000C0E90277C0E90473C0E90677FFF74AFBDF
:101E600018B1EFF3108072B6FEE71648164920222B
:101E7000FFF73CFF15A002ADD0E90112CDE9031236
:101E800012490291817B80898DF81610ADF81400FB
:101E900028460F21FFF7F6FB20464FF40051FEF7CE
:101EA00071FC4FF47A70FEF70DFBF1E7141002405D
:101EB0000004004800002110E5040008A8000020EC
:101EC000003801402C0100203801002068656C6C4E
:101ED0006F20776F726C64210D0A00000FB4054B00
:101EE00010B503A9044A029800F018F810BC5DF878
:101EF00014FB0000BD1C00080000002002E008C820
:101F0000121F08C1002AFAD170477047002001E073
:101F100001C1121F002AFBD1704700002DE9FF4FBD
:101F20008BB09A460F460546002606E025280BD0C2
:101F300052460D9990476D1C761C28780028F5D1E3
:101F40000FB03046BDE8F08F0024A0460122604962
:101F500000E0044315F8013F203B02FA03F0084279
:101F6000F7D128782E2817D115F8010F44F0040472
:101F70002A280ED06FF02F022878A0F1300109290D
:101F80000AD808EB880102EB410100EB01086D1C47
:101F9000F2E757F8048B6D1C287869283ED006DCE0
:101FA0000028CDD063280BD0642804D136E07328F4
:101FB00010D075284BD052460D999047761C85E07D
:101FC00017F8040B8DF8000000208DF80100E94699
:101FD000012003E057F8049B4FF0FF3061074FF0FA
:101FE000000401D40AE0641C44450DDA8442FADBA3
:101FF00019F804100029F6D106E0641C8442FCDBC9
:1020000019F804100029F8D1264404E019F8010B4E
:1020100052460D999047641EF8D257E001CF4FF019
:102020000A0B002802DA40422D2102E0210504D5E6
:102030002B218DF82410012103E0E10705D0202198
:10204000F7E70DF1200908910CE00021F9E701CF35
:102050004FF00A0BF9E75946FEF7C4F801F13002D8
:1020600009F8012D0028F6D1ADEB090000F1200B95
:10207000600701D44FF00108D84502DDA8EB0B0042
:1020800000E000208046002406E009A85246005DDA
:102090000D999047641C761C08988442F5DB04E097
:1020A000302052460D999047761CB8F10001A8F1F6
:1020B0000108F5DC05E019F8010B52460D9990472F
:1020C000761CBBF10001ABF1010BF4DC6D1C34E7B5
:1020D00009280100000000000000000001020304C4
:1020E00006070809000000000102030402030405BA
:1020F000060708090A0B0C0D0E0F1010010203044D
:1021000005060708090A0B0C0D0E0F102E2E2F4482
:102110007269766572732F53544D33324633787833
:102120005F48414C5F4472697665722F5372632F2A
:1021300073746D3332663378785F68616C5F756194
:1021400072742E63002E2E2F447269766572732F7F
:1021500053544D3332463378785F48414C5F447274
:10216000697665722F5372632F73746D33326633E1
:1021700078785F68616C5F7263632E63002E2E2F28
:10218000447269766572732F53544D3332463378F7
:10219000785F48414C5F4472697665722F53726371
:1021A0002F73746D3332663378785F68616C5F7259
:1021B00063635F65782E63002E2E2F447269766507
:1021C00072732F53544D3332463378785F48414C05
:1021D0005F4472697665722F5372632F73746D3327
:1021E00032663378785F68616C5F6770696F2E6301
:1021F000002E2E2F447269766572732F53544D331F
:1022000032463378785F48414C5F44726976657234
:102210002F5372632F73746D3332663378785F682F
:10222000616C5F646D612E63002E2E2F447269769F
:102230006572732F53544D3332463378785F48417B
:102240004C5F4472697665722F5372632F73746D9D
:102250003332663378785F68616C5F636F72746580
:10226000782E63008822000800000020180000007B
:10227000FC1E0008A0220008180000202009000011
:102280000C1F00080000000000000000100000000B
:10229000010000000000000000127A0000000000B1
:040000050800018965
:00000001FF
